:100000000EC013C012C011C010C00FC00EC00DC072
:100010000CC00BC00AC009C008C007C006C011242C
:100020001FBECFEDCDBF0BD035C0EACF882331F056
:100030009AE29A95F1F700C08150F8CF08958AE0CE
:1000400087BB18BA8FEF9CE70197F1F700C000005B
:10005000B499FECFC3E0D8E0D8BB8EE0E7DF18BA92
:1000600082E0E4DFD8BB8FE0E1DF18BA81E0DEDFB9
:100070008FEF9CE70197F1F700C00000C15061F7D6
:1000800018BA8FEF99EF0197F1F700C0000082E0F6
:0800900088BBFFCFF894FFCFFD
:00000001FF
