:100000000EC013C012C011C010C00FC00EC00DC072
:100010000CC00BC00AC009C008C007C006C011242C
:100020001FBECFEDCDBF0BD037C0EACF882331F054
:1000300095E19A95F1F700008150D1F708958AE093
:1000400087BB18BA8FEF9CE70197F1F700C000005B
:10005000B499FECF03E010E1D8E012C0D8BB8C2FDA
:10006000E5DF18BA812F8C1BE1DFCF5FC031B1F71C
:100070008FEF9CE70197F1F700C00000015011F0ED
:10008000C2E0ECCF18BA8FEF99EF0197F1F700C0FB
:0C009000000082E088BBFFCFF894FFCF97
:00000001FF
